{"abi":[{"type":"function","name":"createNewExchange","inputs":[{"name":"_tokenAddress","type":"address","internalType":"address"}],"outputs":[{"name":"","type":"address","internalType":"address"}],"stateMutability":"nonpayable"},{"type":"function","name":"exchangeArray","inputs":[{"name":"","type":"uint256","internalType":"uint256"}],"outputs":[{"name":"","type":"address","internalType":"contract Exchange"}],"stateMutability":"view"},{"type":"function","name":"exchnageToToken","inputs":[{"name":"","type":"address","internalType":"address"}],"outputs":[{"name":"","type":"address","internalType":"address"}],"stateMutability":"view"},{"type":"function","name":"getExchange","inputs":[{"name":"_tokenAddress","type":"address","internalType":"address"}],"outputs":[{"name":"","type":"address","internalType":"address"}],"stateMutability":"view"},{"type":"function","name":"getToken","inputs":[{"name":"_exchnage","type":"address","internalType":"address"}],"outputs":[{"name":"","type":"address","internalType":"address"}],"stateMutability":"view"},{"type":"function","name":"getTokenId","inputs":[{"name":"_tokenId","type":"uint256","internalType":"uint256"}],"outputs":[{"name":"","type":"address","internalType":"address"}],"stateMutability":"view"},{"type":"function","name":"idToToken","inputs":[{"name":"","type":"uint256","internalType":"uint256"}],"outputs":[{"name":"","type":"address","internalType":"address"}],"stateMutability":"view"},{"type":"function","name":"tokenToExchange","inputs":[{"name":"","type":"address","internalType":"address"}],"outputs":[{"name":"","type":"address","internalType":"address"}],"stateMutability":"view"},{"type":"event","name":"ExchangeCreated","inputs":[{"name":"tokenAddress","type":"address","indexed":true,"internalType":"address"},{"name":"exchnageToToken","type":"address","indexed":true,"internalType":"address"}],"anonymous":false},{"type":"error","name":"ExchangeAlreadyExists","inputs":[]},{"type":"error","name":"NotTokenAddress","inputs":[]}],"bytecode":{"object":"0x6080604052348015600f57600080fd5b50611a748061001f6000396000f3fe608060405234801561001057600080fd5b50600436106100885760003560e01c806397f793781161005b57806397f7937814610111578063c3c49a6314610124578063cef319de1461014d578063f5c6b96b1461017657600080fd5b806306f2bf621461008d57806314ff5ea3146100d557806356ba67c3146100fe578063597704381461008d575b600080fd5b6100b961009b36600461034e565b6001600160a01b039081166000908152602081905260409020541690565b6040516001600160a01b03909116815260200160405180910390f35b6100b96100e336600461037e565b6000908152600260205260409020546001600160a01b031690565b6100b961010c36600461034e565b61019f565b6100b961011f36600461037e565b610317565b6100b961013236600461034e565b6000602081905290815260409020546001600160a01b031681565b6100b961015b36600461034e565b6001602052600090815260409020546001600160a01b031681565b6100b961018436600461037e565b6002602052600090815260409020546001600160a01b031681565b60006001600160a01b0382166101c857604051633e9a7ed760e11b815260040160405180910390fd5b6001600160a01b03828116600090815260208190526040902054161561020157604051634f7a3f9360e01b815260040160405180910390fd5b6000823060405161021190610341565b6001600160a01b039283168152911660208201526080604082018190526007908201526626bcaa37b5b2b760c91b60a082015260c060608201819052600390820152624d544b60e81b60e082015261010001604051809103906000f08015801561027f573d6000803e3d6000fd5b5060038054600181019091557fc2575a0e9e593c00f959f8c92f12db2869c3395a3b0502d05e2516446f71f85b0180546001600160a01b038084166001600160a01b03199283168117909355861660008181526020819052604080822080549094168517909355915193945091927f2c4532633e8c7bd3e122b4acb022f8b719c809c0722baa1996befc9a26ad6e6c9190a392915050565b6003818154811061032757600080fd5b6000918252602090912001546001600160a01b0316905081565b6116a78061039883390190565b60006020828403121561036057600080fd5b81356001600160a01b038116811461037757600080fd5b9392505050565b60006020828403121561039057600080fd5b503591905056fe60c060405234801561001057600080fd5b506040516116a73803806116a783398101604081905261002f91610140565b8181600361003d8382610254565b50600461004a8282610254565b505060016005555050506001600160a01b039182166080521660a052610312565b80516001600160a01b038116811461008257600080fd5b919050565b634e487b7160e01b600052604160045260246000fd5b600082601f8301126100ae57600080fd5b81516001600160401b038111156100c7576100c7610087565b604051601f8201601f19908116603f011681016001600160401b03811182821017156100f5576100f5610087565b60405281815283820160200185101561010d57600080fd5b60005b8281101561012c57602081860181015183830182015201610110565b506000918101602001919091529392505050565b6000806000806080858703121561015657600080fd5b61015f8561006b565b935061016d6020860161006b565b60408601519093506001600160401b0381111561018957600080fd5b6101958782880161009d565b606087015190935090506001600160401b038111156101b357600080fd5b6101bf8782880161009d565b91505092959194509250565b600181811c908216806101df57607f821691505b6020821081036101ff57634e487b7160e01b600052602260045260246000fd5b50919050565b601f82111561024f57806000526020600020601f840160051c8101602085101561022c5750805b601f840160051c820191505b8181101561024c5760008155600101610238565b50505b505050565b81516001600160401b0381111561026d5761026d610087565b6102818161027b84546101cb565b84610205565b6020601f8211600181146102b5576000831561029d5750848201515b600019600385901b1c1916600184901b17845561024c565b600084815260208120601f198516915b828110156102e557878501518255602094850194600190920191016102c5565b50848210156103035786840151600019600387901b60f8161c191681555b50505050600190811b01905550565b60805160a05161134261036560003960005050600081816104d6015281816105c201528181610676015281816107810152818161082d0152818161091601528181610b6d0152610c5801526113426000f3fe6080604052600436106100fe5760003560e01c806364338a30116100955780639c8f9f23116100645780639c8f9f231461028a578063a9059cbb146102bf578063b9cf5005146102df578063c2507ac1146102f4578063dd62ed3e1461031457600080fd5b806364338a30146101ff57806370a082311461021f5780638fc7a25d1461025557806395d89b411461027557600080fd5b806329c45cb6116100d157806329c45cb61461019d57806330915250146101bd578063313ce567146101d057806351c6590a146101ec57600080fd5b806306fdde0314610103578063095ea7b31461012e57806318160ddd1461015e57806323b872dd1461017d575b600080fd5b34801561010f57600080fd5b5061011861035a565b604051610125919061107e565b60405180910390f35b34801561013a57600080fd5b5061014e6101493660046110e3565b6103ec565b6040519015158152602001610125565b34801561016a57600080fd5b506002545b604051908152602001610125565b34801561018957600080fd5b5061014e61019836600461110d565b610406565b3480156101a957600080fd5b5061016f6101b836600461114a565b61042a565b61016f6101cb366004611176565b610479565b3480156101dc57600080fd5b5060405160128152602001610125565b61016f6101fa3660046111a2565b61058c565b34801561020b57600080fd5b5061016f61021a3660046111bb565b6108bc565b34801561022b57600080fd5b5061016f61023a3660046111dd565b6001600160a01b031660009081526020819052604090205490565b34801561026157600080fd5b5061016f6102703660046111a2565b6109f2565b34801561028157600080fd5b50610118610a3b565b34801561029657600080fd5b506102aa6102a53660046111a2565b610a4a565b60408051928352602083019190915201610125565b3480156102cb57600080fd5b5061014e6102da3660046110e3565b610c32565b3480156102eb57600080fd5b5061016f610c40565b34801561030057600080fd5b5061016f61030f3660046111a2565b610cd0565b34801561032057600080fd5b5061016f61032f3660046111f8565b6001600160a01b03918216600090815260016020908152604080832093909416825291909152205490565b60606003805461036990611222565b80601f016020809104026020016040519081016040528092919081815260200182805461039590611222565b80156103e25780601f106103b7576101008083540402835291602001916103e2565b820191906000526020600020905b8154815290600101906020018083116103c557829003601f168201915b5050505050905090565b6000336103fa818585610cf1565b60019150505b92915050565b600033610414858285610d03565b61041f858585610d86565b506001949350505050565b600080610439856103e5611272565b905060006104478483611272565b9050600082610458876103e8611272565b6104629190611289565b905061046e818361129c565b979650505050505050565b6000610483610de5565b600061048e34610cd0565b90508381116104b0576040516318eaf39160e11b815260040160405180910390fd5b60405163a9059cbb60e01b81526001600160a01b038481166004830152602482018390527f0000000000000000000000000000000000000000000000000000000000000000169063a9059cbb906044016020604051808303816000875af115801561051f573d6000803e3d6000fd5b505050506040513d601f19601f8201168201806040525081019061054391906112be565b50604080513481526020810183905233917f3ceffd410054fdaed44f598ff5c1fb450658778e2241892da4aa646979dee61791015b60405180910390a290506104006001600555565b6000610596610de5565b4760006105a1610c40565b90508060000361073c576040516370a0823160e01b815233600482015284907f00000000000000000000000000000000000000000000000000000000000000006001600160a01b0316906370a0823190602401602060405180830381865afa158015610611573d6000803e3d6000fd5b505050506040513d601f19601f8201168201806040525081019061063591906112e0565b101561065457604051637222ae5760e11b815260040160405180910390fd5b6040516323b872dd60e01b8152336004820152306024820152604481018590527f00000000000000000000000000000000000000000000000000000000000000006001600160a01b0316906323b872dd906064016020604051808303816000875af11580156106c7573d6000803e3d6000fd5b505050506040513d601f19601f820116820180604052508101906106eb91906112be565b50816106f73382610e0f565b604080513481526020810187905233917fac1d76749e5447b7b16f5ab61447e1bd502f3bb4807af3b28e620d1700a6ee45910160405180910390a292506108ad915050565b600061074834846112f9565b6002546107559034611272565b61075f919061129c565b6040516370a0823160e01b815233600482015290915085906001600160a01b037f000000000000000000000000000000000000000000000000000000000000000016906370a0823190602401602060405180830381865afa1580156107c8573d6000803e3d6000fd5b505050506040513d601f19601f820116820180604052508101906107ec91906112e0565b101561080b57604051637222ae5760e11b815260040160405180910390fd5b6040516323b872dd60e01b8152336004820152306024820152604481018690527f00000000000000000000000000000000000000000000000000000000000000006001600160a01b0316906323b872dd906064016020604051808303816000875af115801561087e573d6000803e3d6000fd5b505050506040513d601f19601f820116820180604052508101906108a291906112be565b506106f73382610e0f565b6108b76001600555565b919050565b60006108c6610de5565b60006108d1846109f2565b9050828110156108f457604051635963217960e11b815260040160405180910390fd5b6040516323b872dd60e01b8152336004820152306024820152604481018590527f00000000000000000000000000000000000000000000000000000000000000006001600160a01b0316906323b872dd906064016020604051808303816000875af1158015610967573d6000803e3d6000fd5b505050506040513d601f19601f8201168201806040525081019061098b91906112be565b50604051339082156108fc029083906000818181858888f193505050501580156109b9573d6000803e3d6000fd5b50604080518581526020810183905233917f35ea94addbc62df281ade49cc2ad9b3d9259166170cf702928b4ddc045f7256e9101610578565b6000808211610a1457604051632ead51b960e01b815260040160405180910390fd5b6000610a1e610c40565b9050610a3483610a2e81846112f9565b4761042a565b9392505050565b60606004805461036990611222565b600080610a55610de5565b60008311610a7657604051632160733960e01b815260040160405180910390fd5b6000610a8160025490565b610a8b8547611272565b610a95919061129c565b90506000610aa260025490565b85610aab610c40565b610ab59190611272565b610abf919061129c565b9050610acb8247611289565b81610ad4610c40565b610ade9190611289565b610ae8919061129c565b47610af1610c40565b610afb919061129c565b14610b195760405163473ab96d60e11b815260040160405180910390fd5b610b233386610e49565b604051339083156108fc029084906000818181858888f19350505050158015610b50573d6000803e3d6000fd5b5060405163a9059cbb60e01b8152336004820152602481018290527f00000000000000000000000000000000000000000000000000000000000000006001600160a01b03169063a9059cbb906044016020604051808303816000875af1158015610bbe573d6000803e3d6000fd5b505050506040513d601f19601f82011682018060405250810190610be291906112be565b50604080518381526020810183905233917f96cd817c6329656790ef8fba7675405193677d39619571282f5e21f3a98cd059910160405180910390a29092509050610c2d6001600555565b915091565b6000336103fa818585610d86565b6040516370a0823160e01b81523060048201526000907f00000000000000000000000000000000000000000000000000000000000000006001600160a01b0316906370a0823190602401602060405180830381865afa158015610ca7573d6000803e3d6000fd5b505050506040513d601f19601f82011682018060405250810190610ccb91906112e0565b905090565b600080610cdb610c40565b9050610a3483610ceb81476112f9565b8361042a565b610cfe8383836001610e7f565b505050565b6001600160a01b038381166000908152600160209081526040808320938616835292905220546000198114610d805781811015610d7157604051637dc7a0d960e11b81526001600160a01b038416600482015260248101829052604481018390526064015b60405180910390fd5b610d8084848484036000610e7f565b50505050565b6001600160a01b038316610db057604051634b637e8f60e11b815260006004820152602401610d68565b6001600160a01b038216610dda5760405163ec442f0560e01b815260006004820152602401610d68565b610cfe838383610f54565b600260055403610e0857604051633ee5aeb560e01b815260040160405180910390fd5b6002600555565b6001600160a01b038216610e395760405163ec442f0560e01b815260006004820152602401610d68565b610e4560008383610f54565b5050565b6001600160a01b038216610e7357604051634b637e8f60e11b815260006004820152602401610d68565b610e4582600083610f54565b6001600160a01b038416610ea95760405163e602df0560e01b815260006004820152602401610d68565b6001600160a01b038316610ed357604051634a1406b160e11b815260006004820152602401610d68565b6001600160a01b0380851660009081526001602090815260408083209387168352929052208290558015610d8057826001600160a01b0316846001600160a01b03167f8c5be1e5ebec7d5bd14f71427d1e84f3dd0314c0f7b2291e5b200ac8c7c3b92584604051610f4691815260200190565b60405180910390a350505050565b6001600160a01b038316610f7f578060026000828254610f749190611289565b90915550610ff19050565b6001600160a01b03831660009081526020819052604090205481811015610fd25760405163391434e360e21b81526001600160a01b03851660048201526024810182905260448101839052606401610d68565b6001600160a01b03841660009081526020819052604090209082900390555b6001600160a01b03821661100d5760028054829003905561102c565b6001600160a01b03821660009081526020819052604090208054820190555b816001600160a01b0316836001600160a01b03167fddf252ad1be2c89b69c2b068fc378daa952ba7f163c4a11628f55a4df523b3ef8360405161107191815260200190565b60405180910390a3505050565b602081526000825180602084015260005b818110156110ac576020818601810151604086840101520161108f565b506000604082850101526040601f19601f83011684010191505092915050565b80356001600160a01b03811681146108b757600080fd5b600080604083850312156110f657600080fd5b6110ff836110cc565b946020939093013593505050565b60008060006060848603121561112257600080fd5b61112b846110cc565b9250611139602085016110cc565b929592945050506040919091013590565b60008060006060848603121561115f57600080fd5b505081359360208301359350604090920135919050565b6000806040838503121561118957600080fd5b82359150611199602084016110cc565b90509250929050565b6000602082840312156111b457600080fd5b5035919050565b600080604083850312156111ce57600080fd5b50508035926020909101359150565b6000602082840312156111ef57600080fd5b610a34826110cc565b6000806040838503121561120b57600080fd5b611214836110cc565b9150611199602084016110cc565b600181811c9082168061123657607f821691505b60208210810361125657634e487b7160e01b600052602260045260246000fd5b50919050565b634e487b7160e01b600052601160045260246000fd5b80820281158282048414176104005761040061125c565b808201808211156104005761040061125c565b6000826112b957634e487b7160e01b600052601260045260246000fd5b500490565b6000602082840312156112d057600080fd5b81518015158114610a3457600080fd5b6000602082840312156112f257600080fd5b5051919050565b818103818111156104005761040061125c56fea26469706673582212205bd146604ef4f7175415187578b61bf943b1886b3a8a0b003ed0599e6134590564736f6c634300081a0033a26469706673582212202b39833a15c38f571f2b46ba90ec7378ff880914d97b12d56f565d163ea3e5df64736f6c634300081a0033","linkReferences":{}},"methodIdentifiers":{"createNewExchange(address)":"56ba67c3","exchangeArray(uint256)":"97f79378","exchnageToToken(address)":"cef319de","getExchange(address)":"06f2bf62","getToken(address)":"59770438","getTokenId(uint256)":"14ff5ea3","idToToken(uint256)":"f5c6b96b","tokenToExchange(address)":"c3c49a63"},"id":33}